:020000041000EA
:1000000000B5324B212058609868022188439860DF
:10001000D860186158612E4B002199600221596106
:100020000121F02299502B49196001219960352056
:1000300000F044F80222904214D00621196600F024
:1000400034F8196E01211966002018661A6600F04E
:100050002CF8196E196E196E052000F02FF8012189
:100060000842F9D1002199601B49196000215960AB
:100070001A491B48016001219960EB211966A021F2
:10008000196600F012F800219960164914480160C1
:100090000121996001BC002800D000471248134993
:1000A000086003C880F30888084703B5996A0420EC
:1000B0000142FBD001200142F8D103BD02B5186610
:1000C0001866FFF7F2FF186E186E02BD00000240BE
:1000D000000000180000070000035F00212200005C
:1000E000F4000018222000A00001001008ED00E03C
:1000F00000000000000000000000000074B24E7A12
:1001000000200420F7010010C3010010C5010010F9
:10011000C1010010C1010010C1010010C101001097
:10012000C1010010C1010010C1010010C701001081
:10013000C1010010C1010010C9010010CB01001065
:10014000CD010010CD010010CD010010CD01001037
:10015000CD010010CD010010CD010010CD01001027
:10016000CD010010CD010010CD010010CD01001017
:10017000CD010010CD010010CD010010CD01001007
:10018000CD010010CD010010CD010010CD010010F7
:10019000CD010010CD010010CD010010CD010010E7
:1001A000CD010010CD010010CD010010CD010010D7
:1001B000CD010010CD010010CD010010CD010010C7
:1001C00000BE00BE00BE00BE00BE00BEEFF3058054
:1001D000103800BEF2EB887114B3001040B3001069
:1001E0003802001090A31AE71E481F49086006C88D
:1001F00081F3088810471D480068002801D019487D
:10020000F3E70DA40ECC002902D000F012F8F9E7B4
:100210001749184A002000E001C19142FCD116495B
:100220008847164988471649884700BEFDE701C937
:1002300001C29A42FBD3704740B30010C0000020B7
:1002400038170020B8C90010000004200000042066
:10025000B8C90010001004200010042000000000A5
:10026000704700000000000008ED00E0000000D032
:100270003817002048280020F56C0010D502001027
:10028000ED6C0010F8B5C04606480749091A8B10F6
:10029000C90FC91810B5491003D0044B002B00D06A
:1002A000984710BD381700203817002000000000C4
:1002B000054B10B5002B03D00449054800E000BFF2
:1002C000FFF7E2FF10BDC04600000000D827002065
:1002D0003CA70010F0B5D6464F464646C0B5B8B06C
:1002E00006F046FE7149724809F0F4FB0121122024
:1002F00001F04EFE0121132001F04AFE01211020E1
:1003000001F046FE112001F0C5FED0248023240612
:100310009B0263620520636101F0BCFE20236548F7
:100320006362636118AC02F035FE402200212000B8
:1003300005F03AF8012305935F4B049402931223CE
:1003400009AC01930233062200215C480394009318
:10035000073301F035FB5A4800F0C2F8814659488E
:1003600006F054FE00F0F4FE574800F0B3FF012001
:1003700002F010FE554806F049FE00F0ADF9524B70
:100380000A989C46604400F007FE0B9800F046FD7A
:10039000099800F095FB0C9800F06AFC012002F02F
:1003A000F9FD00F013FA4A4806F030FE494B0125EA
:1003B0009846494E494F06AC09E0002804D1002D6B
:1003C00022D1FA2002F0E6FD012002F0E3FD00F068
:1003D00063FB012816D00228EFD102F0F1FE82461D
:1003E0000D00200028A900F05FFA53460195009304
:1003F00021686268A36828A800F0D8FA012500F0F7
:10040000E5F9E1E70025DFE701222C210DA800F046
:10041000F5F843464A461978300000F01FF93000DD
:100420002C220DA90A3004F0C5FF33681BBA3B60CB
:1004300073681BBA7B60B3681BBABB60F3681BBAF6
:10044000FB6033691BBA3B6173691BBA7B61B3699B
:100450001BBABB61F3691BBAFB61336A1BBA3B620F
:10046000736A1BBA7B62B36A1BBABB62F36A1BBABC
:10047000FB62336B1BBA3B63736B1BBA7B6300F08D
:10048000E1FE012002F086FD0E233A0000210B4818
:1004900001F002FC052002F07DFD00F0F7FE43466E
:1004A00042461B78013313708BE7C046404B4C002B
:1004B00000C0034088130000A08601000000205007
:1004C000C409000040A700108008089270A700101F
:1004D000B4A7001044280020F81800203817002086
:1004E000034B984201D0034870470348FCE7C046DD
:1004F000C40900008810002094100020304AF8B58C
:100500001388002B0CD1022313802E4B2E4A2F4C24
:100510002F4D1A602000290003F00EFD80B2F8BDB7
:100520002C4C2849A44608682B4E02337043604483
:100530004643664413800E6003F0BEFC274A284BF6
:1005400003F031FC03F03CFDC02300221B0603F046
:1005500048FC03F009FD040030000D0003F0ACFC82
:100560001E4A1F4B03F01FFC1E4A1F4B03F039FCB1
:1005700003F010FD06000F000022200029001B4B95
:1005800003F02FFC32003B0003F02BFC0022184B41
:1005900003F000FC8022174B120604000D0003F04C
:1005A00079FC002801D01448B9E70023002220007C
:1005B000290003F059FC03000020002BAFD1A9E76C
:1005C0003A280020A0100020873F578522D100EF55
:1005D0006B5DB3405FF36E3C0D6619000000E0FFF9
:1005E000FFFFEF41182D4454FB21194000FC9F40B0
:1005F00000FFBF40FFFF4F41FFFF0000F8B50123A0
:100600001C0005000E0017000C400B421BD1002AF5
:1006100016D002240F4A13881B0A2B7013886B70A4
:10062000A6420FD9FFF76AFF020AD2B22A552B1948
:10063000C0B2063458709A70D8701A715871E4B20A
:10064000A642EFD8F8BD044806F064FD002FE0D1C3
:100650000024E7E73A280020E8A70010030013432E
:100660009B070BD1531CC31A022B07D913680360D5
:10067000536843602D2303724172704713780370EF
:100680005378437093788370D378C3701379037170
:100690005379437193798371D379C371EAE7C04683
:1006A00000B583B0152801D003B000BD042909D0DE
:1006B00001230829F8D16A460648D371D11D02F0FA
:1006C000ABFDF1E76A460223D11DD371014802F068
:1006D000A3FDE9E7B4230020302370B582B001AD5B
:1006E0002B70C046C046C046D02480262406B602E1
:1006F000A661C046C046C046012229002F4809F025
:10070000C3FFC046C046C0466661C046C046C0463C
:10071000012002F03FFC6420002102F0C5FB3623DB
:100720002B70C046C046C046A661C046C046C04603
:1007300001222900214809F0A7FFC046C046C04653
:100740006661C046C046C046012002F023FCC04698
:10075000C046C046A661C046C046C046184C2600EA
:10076000283623880222290014482B80023409F0FD
:100770008BFFB442F5D1C046C046C046D02380228C
:100780001B0692025A61C046C046C04601F03CFDBD
:100790000C4C030014220121200002F02BFD00214B
:1007A000200002F071FD0028F9D101220C21064B36
:1007B000153001F007FC02B070BDC04600C0034018
:1007C000A4100020B4230020A106001030B583B08F
:1007D00036236A461371C046C046C046D0248025E1
:1007E0002406AD02A561C046C046C046012201A94B
:1007F0002C4809F049FFC046C046C0466561C04666
:10080000C046C046012002F0C5FB17236A4693800C
:10081000C046C046C046A561C046C046C04602228A
:1008200001A9204809F030FFC046C046C0466561B6
:10083000C046C046C046012002F0ACFB3A236A46DF
:100840001371C046C046C046A561C046C046C046FA
:10085000012201A9134809F017FFC046C046C0464F
:100860006561C046C046C046012002F093FB3423B8
:100870006A461371C046C046C046A561C046C04620
:10088000C046012201A9074809F0FEFEC046C04645
:10089000C0466561C046C046C046012002F07AFBF2
:1008A00003B030BD00C00340F0B557464E46454644
:1008B000DE460023E0B585B004009A469946984686
:1008C0000191C046C046C046D02680273606BF02EA
:1008D000B761C046C046C04603AD2A00FB210233C3
:1008E000314809F0A1FEC046C046C0467761C04607
:1008F000C046C04601226B78AA56D9098B46002A09
:1009000011DA5B4623704B466370009B20006360E6
:10091000534623724346637205B0F0BCBB46B246F1
:10092000A946A046F0BD023BDBB29946C046C04690
:10093000C046B761C046C046C04601232A00FF2119
:10094000194809F071FE4A464B463E2A00D93E231B
:10095000019AFF21DBB2144809F066FE02232A0047
:10096000FF21114809F060FEC046C046C046D023B2
:1009700080221B0692025A61C046C046C0466B7870
:10098000DA0992467F221A4090460022AA562B7816
:10099000002A03DB5B08463B0093B2E7FF3B5B109A
:1009A000463B0093ADE7C04600C00340F0B5D646D5
:1009B0004F464646C0B586B00C0A03910492059393
:1009C00005000E980F990023294A02F0D1FF8046B6
:1009D000190010000023274A02F0CAFF81461900BF
:1009E00010000023244A02F0C3FF82461000FA22BE
:1009F00019009200002302F0BBFF204E03AF5346C4
:100A000000904A464146300006F084FB3B78E4B251
:100A1000002B29D1261C402C24D8F6B2002C0AD059
:100A2000174B00249846295D4046013406F072FBBE
:100A3000E3B2B342F7D3134806F06CFB796812486F
:100A400006F068FB3B7A002B08D1104806F0DEFA6E
:100A500006B0E0BCBA46B146A846F0BD0C4806F068
:100A6000D5FAF5E74026D8E70A4806F0CFFAEFE7CF
:100A700000A493D60087930340420F0024A80010DF
:100A80007CA8001038A8001084A8001070A80010DE
:100A900088A800103CA8001000B583B06A46002367
:100AA0000648D11DD37102F0EFFB0023002801D0CE
:100AB0006B46DB79180003B000BDC046B4230020AC
:100AC000F0B5CE464746362380B585B003AD060067
:100AD0002B70C046C046C046D024802324069B020B
:100AE0009846A361C046C046C04601222900574827
:100AF00009F0CAFDC046C046C04643466361C046D1
:100B0000C046C046012002F045FA300003F0D4F997
:100B100000224F4B06000F0003F063F900224D4BFB
:100B200003F041F903F04CFA4B4A4C4B03F03BF90C
:100B300003F0F2FA03F000FAC3B20120984099469C
:100B400003F0BEF9002200900191454B30003900BE
:100B500003F047F9002206000F00009801993D4B71
:100B600003F03FF902000B003000390003F01BF9DD
:100B700000223C4B03F005F903F0CEFA03F0DCF958
:100B8000C6B2300003F09CF90022364B03F002F9A4
:100B9000009A019B03F025F900222E4B03F021F966
:100BA0000022314B03F01DF903F0B6FA03F0C4F94B
:100BB0002E4F030032004946380006F0ABFA0023FE
:100BC0002B80C046C046C0464346A361C046C046CF
:100BD000C04602232A0090211C4809F025FDC0468A
:100BE000C046C04643466361C046C046C046012079
:100BF00002F0D0F96978C046C046C0464346A361BA
:100C0000C046C046C04610234A462B70013B99435C
:100C1000134019436970022229000C4809F034FD81
:100C20001123022229002B706E70084809F02CFD58
:100C3000C046C046C04643466361C046C046C04643
:100C400005B0C0BCB946B046F0BDC04600C00340C8
:100C500000003041A8CB7841EF39FAFE422EE63F42
:100C60000000B041000070400000303E94A8001029
:100C7000F0B54746CE4680B585B003AB98463623DF
:100C8000424605001370C046C046C046D0248023AB
:100C900024069B029946A361C046C046C046012275
:100CA0004146564809F0F0FCC046C046C0464B4697
:100CB0006361C046C046C046012002F06BF92800BF
:100CC00003F0FAF800224E4B06000F0003F089F8FB
:100CD00002000B0000204B4903F065F803F070F9A7
:100CE000494A4A4B03F05FF803F016FA03F024F97F
:100CF000C5B20120A84003F0E3F800220090019162
:100D0000434B3000390003F06CF8009A019B03F06C
:100D100068F802000B0000203A4903F044F8002272
:100D20003C4B03F02EF803F0F7F903F005F9C7B2D6
:100D3000380003F0C5F80022364B03F02BF80022F0
:100D4000334B03F04EF8009A019B03F04AF802007F
:100D50000B0000202B4903F026F803F0DDF903F027
:100D6000EBF82D4E03003A002900300006F0D2F9CE
:100D7000002342461380C046C046C0464B46A3618E
:100D8000C046C046C046022390211C4809F04CFCD6
:100D9000C046C046C0464B466361C046C046C046DA
:100DA000012002F0F7F8434641465A7810230B70B1
:100DB000013B1340AD01ED1830233F013B40ED18DE
:100DC0004D70C046C046C0464B46A361C046C046B3
:100DD000C0460222094809F057FCC046C046C0463A
:100DE0004B466361C046C046C046012002F0D2F8BF
:100DF00005B0C0BCB946B046F0BDC04600C0034017
:100E000000004040A8CB7841EF39FAFE422EE63F81
:100E10000000204000001040B0A80010F0B5474688
:100E2000CE4680B585B003AB9846362342460500D2
:100E30001370C046C046C046D024802324069B02BF
:100E40009946A361C046C046C04601224146494872
:100E500009F01AFCC046C046C0464B466361C04616
:100E6000C046C046012002F095F8280003F024F89F
:100E70000022414B06000F0002F0B3FF00223F4B5F
:100E800002F091FF03F09CF83D4A3E4B02F08BFFCD
:100E900003F042F903F050F8C5B20120A84003F076
:100EA0000FF8822300900191002230003900DB0509
:100EB00002F097FF002206000F00009801992F4BC7
:100EC00002F08FFF02000B003000390002F06BFFD0
:100ED00000222D4B02F055FF03F01EF903F02CF811
:100EE000C7B2380002F0E8FF0022274B02F052FFA1
:100EF0000022264B02F04EFF0022204B02F071FF31
:100F0000009A019B02F06DFF0022214B02F069FF65
:100F100003F002F903F010F81E4E03003A00290016
:100F2000300006F0F7F842461523702013702D01AB
:100F30000E3B28403B4018435070C046C046C04658
:100F40004B46A361C046C046C046022241460948FE
:100F500009F09AFBC046C046C0464B466361C04696
:100F6000C046C046012002F015F805B0C0BCB94625
:100F7000B046F0BD00C003400000D040A8CB78418F
:100F8000EF39FAFE422EE63F000020400000F03F1D
:100F90000000E03EC8A80010F0B5CE464746362314
:100FA00080B589B005AD06002B70C046C046C0466E
:100FB000D024802324069B029946A361C046C046E4
:100FC000C046012229005A4809F05EFBC046C046CF
:100FD000C0464B466361C046C046C046012001F092
:100FE000D9FF300002F068FF0022524B02F0F9FEF8
:100FF0000022514B02F0D7FE06000F0003F08CF8E0
:1010000002F09AFF804602F057FF0290039102001F
:101010000B003000390002F0B4FE0022474B02F012
:10102000B0FE0022464B02F0DCFE03F075F802F041
:1010300083FFC7B2781CFF3002F042FF002200237A
:1010400002F0CFFE00223F4B02F0CBFE029A039B40
:1010500002F0A0FE0022384B02F0C3FE00223A4B01
:1010600002F0BFFE03F058F802F066FF374E019021
:101070000023002241463000009706F04BF8002381
:101080002B80C046C046C0464B46A361C046C04602
:10109000C04602232A009321254809F0C5FAC0461C
:1010A000C046C0464B466361C046C046C0460120AC
:1010B00001F070FF0A226B782A800332AA70424640
:1010C0005202520EEA700E222A714246120A6A71C8
:1010D0000F2241469343E9716B7213211423AA71C5
:1010E0002972AB72EF72C046C046C0464B46A36140
:1010F000C046C046C0462C0004AD23880222290009
:101100000B482B80023409F0BFFA08AB9C42F4D1A3
:10111000C046C046C046D02380221B0692025A61B8
:10112000C046C046C04609B0C0BCB946B046F0BDD6
:1011300000C003400000F040A8CB784100005040C0
:10114000000010400000D03F0000F03EE4A8001076
:10115000302370B582B001AD2B70C046C046C0468A
:10116000D02420262406A661C046C046C0460122DF
:101170002900314809F088FAC046C046C046666179
:10118000C046C046C046012001F004FF6420002193
:1011900001F08AFE36232B70C046C046C046A661C9
:1011A000C046C046C04601222900234809F06CFA17
:1011B000C046C046C0466661C046C046C046012023
:1011C00001F0E8FEC046C046C046A661C046C04623
:1011D000C0461A4C260020362388022229001648D1
:1011E0002B80023409F050FAB442F5D1C046C04613
:1011F000C046D024202624066661C046C046C046AC
:1012000023220F4B9B5CC046C046C046A661C04629
:10121000C046C0465B322A7029006B70AB707B3AC7
:10122000054809F031FAC046C046C0466661C0466E
:10123000C046C04602B070BD00C00340F0100020A0
:10124000CC10002030B583B035236A46D371C04638
:10125000C046C046D02420252406A561C046C0460D
:10126000C0466B460122D91D074809F00DFAC04659
:10127000C046C0466561C046C046C046012001F078
:1012800089FE03B030BDC04600C0034030B583B016
:1012900036236A46D371C046C046C046D0242025B6
:1012A0002406A561C046C046C0466B460122D91D32
:1012B000074809F0E9F9C046C046C0466561C04626
:1012C000C046C046012001F065FE03B030BDC046F7
:1012D00000C00340F0B5CE464746362380B589B0FE
:1012E00005AD06002B70C046C046C046D024163B54
:1012F00024069946A361C046C046C0460122290083
:10130000594809F0C1F9C046C046C0464B46636122
:10131000C046C046C046012001F03CFE300002F04D
:10132000CBFD0022514B02F05CFD0022504B02F03D
:101330003AFD06000F0002F0EFFE02F0FDFD8046D0
:1013400002F0BAFD0290039102000B003000390058
:1013500002F017FD0022474B02F013FD0022464B1E
:1013600002F03FFD02F0D8FE02F0E6FDC7B2781CA5
:10137000FF3002F0A5FD0022002302F032FD002222
:101380003E4B02F02EFD029A039B02F003FD002269
:10139000374B02F026FD0022394B02F022FD02F00D
:1013A000BBFE02F0C9FD374E0190002300224146EA
:1013B0003000009705F0AEFE00232B80C046C046EB
:1013C000C0464B46A361C046C046C04693212A0092
:1013D0001E3B254809F028F9C046C046C0464B468A
:1013E0006361C046C046C046012001F0D3FD0A2219
:1013F0006B782A800332AA7042465202520EEA707B
:101400000E222A714246120A6A710F224146934304
:10141000E9716B7213211423AA712972AB72EF72F6
:10142000C046C046C0464B46A361C046C046C04603
:101430002C0004AD2388022229000B482B800234A3
:1014400009F022F908AB9C42F4D1C046C046C04620
:10145000D02320221B065A61C046C046C04609B0B0
:10146000C0BCB946B046F0BD00C003400000F0402B
:10147000A8CB784100005040000010400000D03F51
:101480000000F03E08A90010F0B557464E4645460C
:10149000DE46E0B58DB01D0016AB8A46110004CBC8
:1014A00081461B780B92002B00D072E2E0272024AB
:1014B000E64B3F020193E64802F01CFA031F9846F0
:1014C000534651465B0840461E00049302F012FA50
:1014D0000AB292460296964200DD02924B46494677
:1014E0005B0840461E00059302F004FA0AB29346D8
:1014F0000396964200DD0392049E2100300002F024
:10150000F9F92100C3B23000984602F0F3F989B22C
:10151000002903D043460133DBB2984643460633E5
:10152000DBB29846049B2100013B9BB218001E00D1
:10153000079302F0DFF92100C2B23000914602F0B9
:10154000D9F989B2002903D04B460133DBB2994661
:1015500043464B44DBB21E006B461B89210018003A
:10156000984602F0C7F92100C3B24046994602F0FE
:10157000C1F989B2002903D04B460133DBB2994649
:1015800033004B44DBB298465346029A21009A1A24
:10159000D343DB171A4093B218009A46089202F020
:1015A000A9F92100C3B25046994602F0A3F989B2C5
:1015B000002903D04B460133DBB2994643464B44E6
:1015C000059EDBB29A1C0333D2B2DBB2210030009D
:1015D0000A92069302F08EF92100C3B230009946B8
:1015E00002F088F989B2002903D04B460133DBB2FF
:1015F0009946069B21009C46059BE144013B9BB21A
:1016000018001E00099302F075F92100C2B23000E3
:10161000904602F06FF989B2002903D043460133A6
:10162000DBB2984643464B44013398466B469B8950
:10163000210018009A4602F05DF92100C3B250461D
:10164000994602F057F989B2002903D04B4601337D
:10165000DBB299465B46039A21009B1A9B46DB430B
:101660005A46DB171A4093B218009A46934602F086
:1016700041F92100C3B25046C144984602F03AF9FC
:1016800089B2002903D043460133DBB29846434672
:101690004B441E2B00DD82E16E4B0A9A6B806E4B31
:1016A000019EAB806D4B2E80EB801F2313402022C8
:1016B00013432B816A4B049A6B8120235B426B445A
:1016C00013B2002A00D16FE1621E92B2BC4606211D
:1016D00091462F001A00A34200DD220048008046F8
:1016E00048464546013AD2B21040013B9B1A0002DF
:1016F0000A00304301311BB2E853C9B2002BE9DCC8
:101700004B003D0067469C46931CDBB25800804668
:101710000332D2B20196520068461C26805F002830
:1017200027DD631E9BB29946019B2E009C46030059
:10173000A04200DD23004A0090464A464546013B50
:10174000DBB21A40120201383A43C01AAA5300B25F
:101750000A000131C9B20028E9DC634601934B005D
:101760009C46931CDBB25900350088460332D2B246
:1017700052004621604629520299002927DD28227D
:1017800052426A4409B2621E92B2BC4691462F0090
:10179000019E0A00A14200DD220058008046484612
:1017A0004546013AD2B210400139891A00021A00A6
:1017B0003043013309B2E853DBB20029E9DC5900B8
:1017C0003D00884667460232D2B201965200694611
:1017D0002020095E002923DD621E92B29146019A03
:1017E0002E0094460A00A14200DD220058008046E7
:1017F00048464546013AD2B210400139891A0002E2
:101800001A003843013309B2A853DBB20029E9DCDE
:10181000614601915900350088460232D2B2520029
:101820000321404629520F490233A9522822059923
:1018300052426A44DBB20AB200292DD0611E89B23D
:10184000BC4689462F00019E0EE0C04601E0000024
:1018500040597307C0600000406000002160000034
:1018600022A0FFFF26A0FFFF1100A24200DD210001
:1018700058008046484645460139C9B20840013AF9
:101880000002521A3043013312B2E853DBB2002A8D
:10189000EADC3D00674601966A462421525E002A32
:1018A0001DDD611E89B2894601992E008C4611000A
:1018B000A24200DD210058008046484645460139D5
:1018C000C9B20840013A0002521A3843013312B239
:1018D000A853DBB2002AEADC6246350001921F22DF
:1018E000069859000240402002434A53039A0133AC
:1018F000DBB2002A20DD28214942694412B2611E70
:1019000089B2BC4689462F00019E1100A24200DD2B
:10191000210058008046484645460139C9B2084072
:10192000013A0002521A3043013312B2E853DBB2DB
:10193000002AEADC3D0067465A4612B2002A17DD4B
:10194000661EB6B2B0461100A24200DD210058006A
:101950008446404666460139C9B20840013A000251
:10196000521A3843013312B27053DBB2002AEADC58
:1019700003215A0051530B9A01331371FF230120A5
:10198000156053710DB0F0BCBB46B246A946A046E7
:10199000F0BDF027084B08243F0201938BE5074870
:1019A00005F0B8FB0020EDE70E230C2198468C468D
:1019B0001022073B0639AFE601F800002CA9001001
:1019C000F0B54E464546DE46574693460122E0B501
:1019D0000E00110091B003931AAB1B88B1409946D9
:1019E0001BAB1B88040098461FAB1B781D9D029300
:1019F000036804918B4303604B461A4200D02BE1ED
:101A00004346DB0700D523E11C99954801F072FF9E
:101A1000002900D0F0E006AA9246029B41460193BD
:101A200000921E9B1C9A4846FFF72EFD002251464D
:101A3000200007F04FFF8B4A5846A7183F0D063786
:101A4000FAB201271100059200F0A2FA01235A46CA
:101A500031002000009707F095FF029B002B00D07B
:101A600096E00B938022F82352025B0208920993BE
:101A7000C0230CAF08A91B03102238008B6003F0B1
:101A800099FC5346F8211A795B4689005B010B40AB
:101A90008021013AC90412030B43FB60724B7A6048
:101AA000BB6000223B003100200007F0C5FF236827
:101AB000049A1C991A432260694801F01BFF031F16
:101AC000180049469A4601F015FF4146471E504608
:101AD00001F010FF32000123103293400138626898
:101AE0001342FCD1B600A619376162681342FCD1DB
:101AF000306149465A4801F0D5FE41460400584835
:101B000001F0D0FE2418404602F0D6F902000B0086
:101B10000020564902F047F96410060020000F002B
:101B200002F0CAF902000B003000390002F029F976
:101B300002F0A4FA0022002306000F0002F0AAF926
:101B4000002803D1802109067B181F0030003900CE
:101B500002F0F2F91C9A1C9B94462B6043006344EC
:101B6000EB60434B06006C60A860984266D8C145A4
:101B700060D3EC68AB686A6829683E48009405F059
:101B8000C9FA11B0F0BCBB46B246A946A046F0BDAA
:101B90000599039800F0FCF901233100039A00979E
:101BA000200007F0EFFE002380220B93F82352025F
:101BB0005B0208920993C0230CAF1B03102208A9F3
:101BC00038000A9303F0F6FB53461B792A4A013B7F
:101BD0001B0313408022D2051A435B465901F823A8
:101BE000F8209B001940039BC0019B02034019434E
:101BF0008823DB050B4350E71C9802F05DF90200D7
:101C00000B000020194902F0CEF802F037FA02006A
:101C10000B000020154902F0C6F802F02FFA02F07E
:101C20008BF907007D223B0014481C9905F072FADD
:101C30001C97F0E6124805F0E9F99AE7114805F01B
:101C4000E5F9114B9E4292D9104805F0DFF98EE775
:101C50000F4805F05FFAD7E60E4805F05BFACFE6CD
:101C6000405973070000E0AF0000064065CD9D417C
:101C700060CC050058AC0010FFFFFF9F1CAB0010AC
:101C800010AC0010A8AB001040420F00DCAB0010FD
:101C9000B4AA00104CAA001070B50E00002B0FD093
:101CA0000C0001211034A1409B000436D518B60069
:101CB000146843681942FCD104323450AA42F7D167
:101CC000012001F067F970BDD0231B061B68AC4AE8
:101CD0009900F0B5DE468B4651585A4253412F22A7
:101CE00057464E4645465B4293439A46A54BE0B560
:101CF0009C4683B000260191E244002938D0A24BD3
:101D000099465246F30808339B009D58012334003E
:101D100098460836002D22D00F212000294001349A
:101D20002D09002919D04B465A469A580300C24043
:101D3000203BDB171340424613420CD107220F0011
:101D40000240920097403A00C308904F3C339B00FA
:101D5000DA51019B9847002D01D0B442DCD3202EEC
:101D6000CFD103B0F0BCBB46B246A946A046F0BDF9
:101D7000854E5F4600210F23B346CC082200504613
:101D8000083292001258002A00D1D0E0180010400A
:101D90008046100913421AD05D46ED59A946202508
:101DA0006D42AC468C446546ED17AC464D46CD4081
:101DB000A94665464E4635400126354204D1464681
:101DC000724D3C34A4006651002800D1AFE01C00E5
:101DD0000440A446140A03421AD0481C80465846C0
:101DE000C059464681464D460800F5401F38C01789
:101DF00028400125284208D165462D01AC46F0084F
:101E00006646624D3C3080004651002C00D18EE089
:101E1000180020408446100B234211D08C1CA04691
:101E20005C46E4594646A1464D460C00F5401E3C32
:101E3000E4172C4001252C4200D182E0002876D006
:101E40001C000440A446140C034210D0C81C804659
:101E50005846C059464681464D460800F5401D3853
:101E6000C01728400125284275D0002C5FD01800EB
:101E700020408046100D23420ED00C1DA44665461E
:101E8000414CE459EC40A1460C004D461C3CE40F8B
:101E90002C426AD000284AD01C000440A446140EEC
:101EA000034218D0481D804645463748C059E8408F
:101EB000814608004D461B38C00F284209D16546AF
:101EC0002D05AC4640466646C008304D3C3080008B
:101ED0004651002C2BD0180020408446120F23427C
:101EE0002AD029488C1D8146C059E0408046080010
:101EF00045461A38C00F284206D1E0086446234DF3
:101F00003C30240680004451002A10D04846C05975
:101F1000CC1DE0408446080065461938C00F2842B1
:101F200005D1E0083C30194C1207800002510831FD
:101F3000202900D021E714E7002AF8D01248814672
:101F4000E4E765462D02AC46F40866460F4D3C3486
:101F5000A400665172E765462D03AC46F00866465C
:101F60000A4D3C30800046517FE745462D04A84687
:101F700064464646E408054D3C34A400665189E7B2
:101F8000402300203041014008280020004001404B
:101F9000094A83009A1810B51468402254408032D0
:101FA0002240064CC000A44663441A60044B9C4681
:101FB0006044416010BDC04604C0014004D00140EF
:101FC00000400140F8B545469846D0231B06DE4642
:101FD0001C689B462B4B57469A46A3004E46994693
:101FE000E0B5534616004A469B5807000D00002BEB
:101FF00034D04346002B3FD053464A464146995081
:10200000D0231B061C6863425C412F2207206342D9
:1020100093431D4A38409446FA08110080008540D9
:102020003C311A486344890092000D509B18002EE1
:102030000ED0802292019446634401210D201D6040
:1020400000F020F9F0BCBB46B246A946A046F8BD58
:10205000C0229201944663441D60F3E74346002B7F
:10206000D1D0534641460D2099500022084900F036
:102070006BF95B461C68C6E70D20054900F05EFA67
:10208000BAE7C046402300203041014000400140F3
:10209000C91C00100123D022834012069362936171
:1020A000094A83009A1811684022514080320A4040
:1020B0000649C0008C4663441A60054B9C460523C4
:1020C000604443607047C04604C0014004D00140F2
:1020D000004001408023DB051868000F7047C046B0
:1020E0000FB400B5084883B004F090FF049B002BA8
:1020F00007D005A91800019104F0C4FD034804F0BD
:1021000085FF012004F0D6FDBCAC0010CCAC001063
:10211000EFF3108072B6034A1368002BFCD0BFF3B4
:102120005F8F70472C0100D0BFF35F8F0022024BFE
:102130001A6080F3108870472C0100D070B5EFF35F
:10214000108C72B60D4D2B68002BFCD0BFF35F8F47
:102150000724CB08C618C05C01230C40A3401C0018
:102160000440034207D118433070BFF35F8F2C60E7
:102170008CF3108870BD1000FFF7B2FF2C0100D067
:10218000F8B54746CE46884680B5EFF3108C72B658
:102190001C4D2C68002CFCD0BFF35F8F9A4222D8D4
:1021A00007210126894602E00132934218D34D46A9
:1021B00037001540AF40D4080119045D2742F3D120
:1021C00010003C430C70BFF35F8F00220D4B1A6070
:1021D0008CF3108800280EDBC0BCB946B046F8BDB1
:1021E00001204042EFE7BFF35F8F00232B608CF3A9
:1021F0001088012040424346002BEDD00898FFF79D
:102200006FFFC0462C0100D0044A1078431CDBB29B
:10221000172B00D9102313707047C04610110020EF
:1022200010B5064B064C82B00100009318221F2304
:102230002000FFF7A5FF02B010BDC046D0AC0010D3
:10224000502300200021044B044ABFF35F8F02C3D8
:102250009342FAD17047C046000100D0800100D0FF
:10226000054B064A1360064A136053609360D360BF
:1022700013615361936170478080808000E400E0C7
:1022800004E400E01F2318401E3B8340002905D0D2
:10229000C021044A4900535013607047802201490D
:1022A0008B50FAE700E100E001228240034B1B68FB
:1022B00013405A1E9341D8B27047C04600E100E077
:1022C00001238340014A13607047C04600E200E0EA
:1022D000064B10309B688000C358054A00209B1AAB
:1022E0002F229A424041C0B27047C04600ED00E044
:1022F0001411002070B50D00EFF3108672B60F4A6E
:102300001368002BFCD0BFF35F8F0D4B10309B6820
:1023100084001B590B4A934203D09D4201D001F027
:10232000E3F9074B9B681D51BFF35F8FBFF35F8FCE
:102330000022024B1A6086F3108870BD240100D081
:1023400000ED00E0CD010010F0B557464E46DE46E8
:102350004546E0B585B0060000911700EFF3108BFD
:1023600072B66A4A1368002BFCD0BFF35F8F00255A
:10237000674B5D579A46002D00DAA9E06B00654C6B
:1023800001935B199B009846A146C1444B465246B7
:102390009B7910361370604BB6009B6899590B1BE4
:1023A0002F2B33D95D4B994200D0ACE0019B4246C4
:1023B0009C465B4B6544AD0063535A4B0232A218F6
:1023C000043B9B1A1B05584A5B0D651913436B8030
:1023D000564B0121AB80FF23AB71009BEF71AB60CB
:1023E0004B460B4319004C4B9B689951BFF35F8FD1
:1023F000BFF35F8F0022454B1A608BF3108805B046
:10240000F0BCBB46B246A946A046F0BD01200A007A
:102410008243D3798C46BB4231D8454613004449A8
:102420001B1B5B415943090D3D4B63533D4B02352B
:102430006519043B5B1B1B053B4D5B0D2B43AA46FB
:102440004D466B800425AC465546E044131F44447A
:102450001B1B1B055B0D1D434B46997100999D800D
:1024600099604946DF71334B01431360BBE7580065
:10247000C01880002018C179B9422FD90200062364
:10248000D356002BF3DA02932B4B61460393131DB3
:102490009A4604235B429C46E14450464B461B1A35
:1024A0001B055B0D9C46204B957198466346404644
:1024B00003439380019B5A199200039BA418A380A5
:1024C000029B1C4AA371009B2260E771A3608AE70C
:1024D00001F00AF9002553465D574FE790880293B3
:1024E0004005131D9A46031561469C464046D44458
:1024F000634604302018181AE0230005400D1B0223
:1025000018430390C5E701F0EFF84FE7240100D02E
:10251000402800201411002000ED00E0CD01001043
:1025200000A1FFFF4411002000E0FFFF01BDFFFFFD
:10253000AAAA00000148804701BD0000F0B5DE46B0
:1025400057464E464546E0B50C0083B0EFF3108881
:1025500072B6634A1368002BFCD0BFF35F8F614BE8
:1025600061499A68030010339F00D55901938D4249
:1025700043D0A54254D05D4EAA1B2F2A3DD85C4BB8
:102580009B461B68994601231A009C4682404B4695
:1025900013401F2299466346024093409A46802288
:1025A0005B4650469850BFF35F8FEFF305839B4621
:1025B000002B37D0019B5B4501D001F095F801233A
:1025C0002A009A439068844208D176E04B005B1859
:1025D0009B00F3189868844236D01A0006215156A1
:1025E0000029F3DA844254D04B46002B27D0C02276
:1025F00051463F4B5200995019603A4B9B68DD5150
:10260000BFF35F8FBFF35F8F0022354B1A6088F3F3
:10261000108803B0F0BCBB46B246A946A046F0BD48
:102620000D00EAE72A0063469A4390688442D5D1B8
:1026300006201056130000280ADA0D0031E080232E
:1026400051462B4AD150D8E706201856002821DBE6
:1026500042001118890074188B46A1689960E179CD
:10266000D971062161569971002924DBA488F11AD9
:10267000640524155C44091909051E4C490D2143C4
:10268000998013181C4A9B001178F31899711070E7
:10269000AAE713005946002914D1FF319171174957
:1026A000918015490A789A71154A9B1B5B415A43E0
:1026B000120D0A7098E71149E2E706201056130040
:1026C0000028C5DA0F4A1049D21A083A5002400DC4
:1026D000014399800D4952080A43DA8084E7C046D5
:1026E000240100D000ED00E0CD0100101411002005
:1026F00000E100E000E0FFFF4028002001BDFFFFF7
:10270000AAAA00004E11002000F0FFFF00F8FFFF12
:1027100070B501240443EFF30581EFF3108C72B61A
:10272000214A1368002BFCD0BFF35F8F1F4B0500BD
:102730001F4AED1A6D416A43120D1E4D8900AE68A5
:1027400052B27658A6421CD00621595691421CD04E
:1027500012215956914222D01E215956914220D021
:102760002A2159560324914210D0134B19781A701C
:102770008171BFF35F8F00220B4B1A608CF31088BE
:1027800070BDAB680D4C5C50EFE700246100091987
:1027900089005B18FF21997109499980E5E70124B7
:1027A000F4E70224F2E7C046240100D0141100200F
:1027B000AAAA000000ED00E040280020CD01001092
:1027C00001BDFFFF10B5084B084C82B0010000931B
:1027D000002205232000FFF7D3FC002801DB1F2384
:1027E000181A02B010BDC046ECAC001045280020FD
:1027F000024B9C46614489000160704740000034F0
:1028000070B5114C114DAC420FD2FF262368002B3E
:102810000CD0FFF7F9FC01002000FFF7E9FFA680CC
:10282000BFF35F8F0834AC42F0D370BDFFF7ECFC10
:1028300001002000FFF7DCFF2671BFF35F8F083433
:10284000AC42E3D3F1E7C046301700203817002030
:1028500010B50400FFF7D8FC01002000FFF7C8FF07
:10286000FF232371BFF35F8F10BDC04610B5040076
:102870000120FFF7D5FC034BC3189B002360BFF377
:102880005F8F10BD40000034034B9C4661448900BB
:102890000160BFF35F8F7047400000340A4B196836
:1028A000EFF3108072B60A68002AFCD0BFF35F8F86
:1028B0001B68BFF35F8F00221A6080F3108840BF4F
:1028C000002000217047C0461C280020F0B5DE46DD
:1028D00057464E464546E0B587B0EFF305830322E1
:1028E00001251A40954091008846A946B34B0392B2
:1028F0005C58B34B1D60B34B04934B46B2484363E3
:102900000823E55E002D37DAA3881BB2002B00DB1D
:10291000ADE0A379002B00D0EEE00823E05E0028B4
:1029200020DB430062691B18DB00D3189E68DD685A
:10293000731C00D111E1A44801004144826A0B6973
:10294000B71A9B1A9F4215D30123026A039883404A
:102950001A420FD09C4800F02BFC8D4202DCCCD1F7
:102960008642CAD940BF07B0F0BCBB46B246A946B2
:10297000A046F0BD0E61EDE762696B0092465B19FF
:10298000DB009A4453469E68DF6800F011FC8F42DA
:10299000BADC00D103E1002F00DAE8E052465346EA
:1029A00052691B699346049A934200D1D9E052467A
:1029B0000821605E528800045946104398470090F1
:1029C00001910099019A0B001000134300D1CEE051
:1029D00013000A00B61A9F41002806DB7A4800F06F
:1029E000E7FB009E019F36184F4153469E60DF6013
:1029F00000229A5E002A00DA86E75300991860697F
:102A0000C900411802938B68C9689B46B94200DD32
:102A10007AE702D1B34200D976E708239C46A44462
:102A2000059565462281A446029B2C0006E05300D2
:102A30009918C90041188D68C968AB469B18DB001E
:102A4000C318B94206DC00D1B3E01C000023E25EEB
:102A5000002AECDA230064469C4653461A806346FB
:102A6000059D1D80A3881BB2002B00DA51E7226967
:102A7000EFF3108172B61368002BFCD0BFF35F8FA9
:102A80000123A7885B42A3803FB22369BFF35F8F16
:102A900000221A6081F31088002F00DA39E7230042
:102AA000083322009A4666697B00DB19DB00F318C5
:102AB000996850468C460824115FDD68002910DBB8
:102AC000029306E0AB4244D00023E15E20000029DF
:102AD00006DB4C006418E4003419E368AB42F1DD16
:102AE000029B078000201F5E1980002FDCDA140093
:102AF000A379002B00D110E70023A371260008233F
:102B0000E15E08364B1C00D12CE70800A24665693F
:102B100002E03E004B1C1AD04B005B18DB00EF18A4
:102B20000A008C46E95E7B881BB2002BF1DA012398
:102B30005B42DC17BB60FC60824205D053463180AB
:102B40001B893B8053461A8160464B1CE4D1544696
:102B5000E5E6A3686345B7D9C2E76B1C00D0EAE697
:102B6000F8E65B4658461B69984700281BD1534638
:102B70001B8822692381EFF3108372B61168002944
:102B8000FCD0BFF35F8F514662880A80226965805E
:102B9000BFF35F8F0021116083F31088B4E6864293
:102BA00000D8F8E6B0E65B461A685B6800920193CD
:102BB00007E7B34500D848E74CE7C046F8270020B0
:102BC0003C700540CD2800100040054070B52E4CEB
:102BD0002569002D04D00A212C48FFF709FE70BD9D
:102BE0002B4E0321300000F0D9FAE660FFF70CFB12
:102BF000284B03229C46D02322701B061B68012110
:102C00006370254B6044A3600F2380002061022085
:102C1000638063694942A180198002311986473176
:102C20001D83585218315A5275325C3999521832F4
:102C300001319952183201319952183201319952A9
:102C4000083518329D52023118329952183201312A
:102C50009952183201319952183201319952183271
:102C6000013199521832013199520C4B0C49DC60F8
:102C700001303562FFF73EFB01210320FFF702FB25
:102C8000084B1D60A7E7C0465C1100201C280020EF
:102C90000040054040000034FFFF1000F8270020EE
:102CA000CD28001038600540004870475C110020B6
:102CB000F8B51F0008AB1B7804001600002B08D1E4
:102CC00000F07EFA32003B00121A8B41002B00DA32
:102CD00052E02269EFF3108072B61368002BFCD02B
:102CE000BFF35F8F0223E15E63694A005218D2008E
:102CF0009B182269002936DB1D886580BFF35F8F32
:102D00000025156080F31088069A9E60DF601A61C6
:102D1000079A5A615A8801325204520C101C002A38
:102D20001FD082B25880080410432669EFF3108741
:102D300072B63268002AFCD0BFF35F8FA2881A8077
:102D4000A1802369BFF35F8F00221A6087F3108888
:102D50000A4923788C4601329A40E36863441A603A
:102D6000F8BD0120DDE7BFF35F8F0023136080F320
:102D7000108801204042F3E70020F1E73C200000EA
:102D800070B501000469EFF3108C72B6206800285A
:102D9000FCD0BFF35F8F02200D5E4C6968004019C4
:102DA000C00024180869002D36DB26884E80BFF34A
:102DB0005F8F002606608CF31088E36063880498B8
:102DC000013320615B0405985B0CA26060611A1CF2
:102DD000002B1FD093B22804628018430A69EFF3D6
:102DE000108C72B61368002BFCD0BFF35F8F8B88FA
:102DF00023808D800B69BFF35F8F00221A608CF3F4
:102E000010880B7801329A40CB6808498C4663449D
:102E10001A6070BD0122DDE7BFF35F8F00230360FE
:102E20008CF3108801204042F3E7C0463C200000AC
:102E300010B543890A1493421ADD53009B18426966
:102E4000DB00D3180469EFF3108C72B62268002AF5
:102E5000FCD0BFF35F8F5A88090494B2090C8A42F0
:102E600008D00369BFF35F8F00221A608CF31088CB
:102E7000002010BD8022120214435C8001230269ED
:102E80008371BFF35F8F002111608CF310880449B8
:102E900002788C469340C268012062441360E8E7E0
:102EA0003C20000040787047F0B5C64600B582B0BF
:102EB00004000D0000F084F924184D41002D02DAC1
:102EC00001242F4D644206267642F71736196F41CA
:102ED000AF4214D811D000F073F932003B00121A3F
:102EE0008B41002B15DC002B46D02000290000F080
:102EF00071F902B080BCB846F0BDA642EBD90026FD
:102F0000002700F05DF932003B00121A8B41002BC4
:102F1000E9DD00F055F932003B00121A8B41002B1D
:102F20000ADB00230193174B3200009316483B0045
:102F3000FFF726FF0130D8D000233900B0469C4669
:102F4000124A1348536A994204D8966A4645CCD22D
:102F50009942CAD10668EFF3108772B63368002B26
:102F6000FCD0BFF35F8F0368BFF35F8F66461E60C0
:102F700087F3108820BFE5E7002AB6D0C9E7C0462E
:102F8000FFFFFF7F9D2800105C11002000400540DE
:102F90001C280020F0B5C64600B582B0040000F041
:102FA0000FF9FA2206000F002000002300219200F2
:102FB00002F07CF98019794104000D1E02DA012427
:102FC0002E4D644206267642F71736196F41AF42FE
:102FD00014D811D000F0F4F832003B00121A8B41E3
:102FE000002B15DC002B46D02000290000F0F2F861
:102FF00002B080BCB846F0BDA642EBD9002600273F
:1030000000F0DEF832003B00121A8B41002BE9DDA4
:1030100000F0D6F832003B00121A8B41002B0ADB7D
:1030200000230193164B3200009316483B00FFF734
:10303000A7FE0130D8D000233900B0469C46124A82
:103040001248536A994204D8966A4645CCD29942AE
:10305000CAD10668EFF3108772B63368002BFCD034
:10306000BFF35F8F0368BFF35F8F66461E6087F311
:10307000108820BFE5E7002AB6D0C9E7FFFFFF7F31
:103080009D2800105C110020004005401C280020F5
:10309000F0B557464E46DE464546E0B506000F0001
:1030A00085B0EFF3058399468B46002B12D0384943
:1030B00000204B6ABB4206D38A6ADB1B591E8B4138
:1030C000B2424041184305B0F0BCBB46B246A946E7
:1030D000A046F0BD2F4B9A46DB68984653461B78B6
:1030E0004046039300F064F84246039B0400043317
:1030F0009B009B580D001B1A39003000001BA94192
:10310000894510DC0DD020BF214A0020536A5B4561
:10311000D9D3926ADB1B591E8B41B24240411843FE
:10312000D1E78342EFD900F04BF832003B00121A8E
:103130008B41002B1ADB00230193174B32000093C5
:1031400050463B00FFF71CFE011E0FDD104B5A6A74
:103150005A451BD39B6AB34216D35046FFF768FE0D
:103160000B4A0020536A5B45ADD3D2E7084A0020E2
:10317000536A5B45A7D30020926ADB1BB2424041F1
:103180005A1E934118439EE75A45E6D120BFE4E713
:10319000004005405C1100209D28001010B5024A37
:1031A0000248FEF7CBFF10BD08AD001054230020ED
:1031B0000300416A0A00986A596A8A42FAD1704744
:1031C000034B596A0A00986A596A9142FAD17047CA
:1031D00000400540064A536A9942FCD807D1044B87
:1031E00002E05A6A914202D19A6A9042F9D8704735
:1031F0000040054070B516000D0019000400FFF7EF
:10320000F7FA2900701C02F0B3F80023E681A581CB
:103210006060A36070BDC04670B502680400EFF343
:10322000108572B61368002BFCD0BFF35F8F208926
:103230006389E289C31A01D5561C9B199A4208D1A9
:103240002368BFF35F8F00221A6085F31088002087
:1032500070BDA28963685043181802F0ABF80022D1
:1032600010002389E18901339BB2994250414142C8
:103270000B4023812368BFF35F8F1A6085F31088AA
:1032800040BF0120E4E7C04670B504000800226892
:10329000EFF3108672B61368002BFCD0BFF35F8F7C
:1032A000658923895B1B02D5E28901329B18002BBB
:1032B00007D12268BFF35F8F136086F31088002068
:1032C00070BD002806D0A28961685543491902F0F3
:1032D00071F8658900231900E2890135ADB2AA426F
:1032E00059414A42154065812268BFF35F8F1360E0
:1032F00086F3108840BF0120E2E7C046F8B5DE46FD
:103300004E4657464546E0B58B4605000A991800DB
:10331000160000F0EFFA0A9B6C001F02324B641992
:103320009C46A4006444636881469F4200D967605C
:103330002B1FDBB29846012B30D9C02380229B0182
:10334000E31812011A60294BAD0059599A46002919
:103350001BD17301E026226853401E408023424661
:103360005B01E3181E60012A30D9802380229B0173
:10337000E31812011A6053464A4667605A51F0BC7E
:10338000BB46B246A946A046F8BD586900F0B2FA5D
:10339000013043001B18033BFDD2DAE75B46012BEB
:1033A000CBD1C02303229B01E3181A60023AA36821
:1033B0001A42FCD07301E0262268AD0053401E4043
:1033C00080230A4A5B019246E3181E605A46216830
:1033D000514003220A401A6001225B469A40A368CA
:1033E0001A42FCD0C1E7C0460080004058230020AC
:1033F000F0B546464F46D646C0B51F00344B440094
:103400009C462418A4006444636888461600FF2B79
:1034100002D880235B006360031FDBB29A46012B56
:1034200030D9C02380229B01E31812011A60294B76
:1034300085005959994600291BD17301E02622685D
:1034400053401E40802352465B01E3181E60012A50
:1034500030D9802380229B01E31812011A60802357
:103460005B0063604B465F51E0BCBA46B146A8467C
:10347000F0BD586900F03EFA013043001B18033BD1
:10348000FDD2DAE74346012BCBD1C02303229B01B7
:10349000E3181A60023AA3681A42FCD07301E026CE
:1034A0002268850053401E4080230A4A5B019146F2
:1034B000E3181E6042462168514003220A401A6008
:1034C000012342469340A2681342FCD0C1E7C046A4
:1034D0000080004058230020014B8000C0587047F6
:1034E00058230020F8B5040021481E0017000D00E5
:1034F00000F000FA0100380000F0FCF9069B3604E9
:103500001B031E432368002B20DB1A4B1A49E318C8
:103510005A1E93418022920194465B421B0B174A2C
:103520001B0363441360164A13601F000A68974325
:10353000FBD1144B2560E2182123A060136023689F
:10354000002BFCDA0823E6601360F8BD3F232268F5
:103550001340AB42D9D1A3681B051B0D8342D4D1C4
:10356000EE22E368D2021340B342CED1EDE7C0466B
:10357000001BB7000040FDBF08C0004000E0004055
:1035800000F000400430000010B580241C4BE4051E
:103590001C6000281AD001231A4C18431A4BDC6116
:1035A0001A4C44401C62596298628021144BC90530
:1035B0001960174817490860E021C9041960002AFA
:1035C00007D18022144B12061A6010BD0E4BD86131
:1035D000EBE753019B1A9B009A18802312015B04AE
:1035E0009A4209D213000D490B60074B5A608022A2
:1035F000094BD2051A60E8E7094B1A00F3E7C04609
:1036000000B00540D3C007B0008005402D3FF84F03
:10361000FCFF01000820014000A00540D027002049
:10362000FFFFFF008023024A9B000B43D3627047D9
:1036300000800540002310B50100988A1B8B984735
:1036400010BDC046162310B50100188802331B8830
:10365000984710BDF8B54746CE4680B50F1E18D026
:1036600014239946043304000025012698464B464E
:103670001888434621681B88984701C4431E984117
:1036800001350640AF42F2D13000C0BCB946B04669
:10369000F8BD0126F8E7C046002370B504000D0010
:1036A000988A05491B8B984703000020002C01DBFA
:1036B0000130A0402900984755420000AA23064A3D
:1036C0001B0113608D235B00D3600449044B196018
:1036D0005368002BFCDA70470040024000B0FA004B
:1036E000006002407047C04610B50148FEF7F8FC84
:1036F0002CAD001070B5074D074EB54209D200241D
:10370000013E761BB60808CD984723000134B3422A
:10371000F9D170BDF8A6001034A70010054B064A79
:1037200006491A60064A074B1A6010000B68984356
:10373000FBD1704700E00040BFCDFBFE08C0004059
:10374000FE7F3C0000F00040044BDB6C002B03D1FB
:103750008022034BD2021A607047C046000011500D
:103760004C201150044A054B1A60054A1368DB01CE
:103770008033FBD17047C046FFFFFF0100F00040DF
:1037800008C000404022034B9A675A671A67DA66FE
:103790007047C04600F0014010B5FEF753FD10BD64
:1037A00070B5044D044CA968C022200001F002FE4F
:1037B000AC6070BD00ED00E000000020002310B5FB
:1037C000294C82B0A367FFF779FF0122274B1A60CB
:1037D000636C012BFCD10322254B1A60224A936BA8
:1037E000012BFCD1013300930121224A22480433EA
:1037F000FFF778FE052301210093204A2048FFF7B8
:1038000071FE0022022104201E4BFFF7F1FD002271
:10381000012105201C4BFFF7EBFD002200210720B2
:103820001A4BFFF7E5FD002200210820174BFFF798
:10383000DFFD8023DB000093002200210920134BD1
:10384000FFF75CFD0022104B00210620FFF7D0FDA2
:103850000420FFF741FE0E4900F04CF80100002063
:10386000FFF7E0FE02B010BD008000403CB0004019
:1038700030B00040002F685900800240008C86471D
:1038800000C00240001BB70040597307006CDC0207
:1038900040420F0001480421014B184780110020CD
:1038A00055360010124A936F9B0815D29066D16668
:1038B000002905D0FFE7FFE7FFE7516F106F704762
:1038C00004B580210906C2175140002800D0C84322
:1038D00006F0C2FE002104BDF0B5146E556E576FA0
:1038E000166FFFF7E3FF1466556657671667F0BD5E
:1038F000000000D0114A936F9B0813D210665166E6
:10390000002905D0FFE7FFE7FFE7516F106F704711
:1039100004B5002801D00020C04306F09DFE002120
:1039200004BDC046F0B5146E556E576F166FFFF7A5
:10393000E5FF1466556657671667F0BD000000D0B6
:1039400094464A4A926F9208624601D228E0C046E5
:10395000F0B5464E346E756E776F366F00F020F816
:103960009446424A14665566576716676246F0BD2C
:1039700094463E4A926F9208624601D254E0C04695
:10398000F0B53A4E346E756E776F366F00F04CF8C6
:103990009446364A14665566576716676246F0BD08
:1039A000002B24DB11D000293EDA00B5C943404288
:1039B00000D1013100F038F8C943404200D1013153
:1039C000DB43524200D1013300BD002AEBD1002875
:1039D00001D1002905D00020C90FC90701D1C0437A
:1039E000410800B506F030FE0022002300BD00B5FE
:1039F00000290ADBDB43524200D1013300F014F806
:103A0000C943404200D1013100BDC943404200D109
:103A10000131DB43524200D1013300F005F8DB43B2
:103A2000524200D1013300BD002923D1002B18D10F
:103A3000002A0CD0BC460D4F38667A660021002360
:103A4000FFE7FFE7FFE77A6F386F674670470028A8
:103A500001D00748010000B506F0F6FD0022002362
:103A600000BD02000B00002000217047000000D0C4
:103A7000FFFFFFFF002B00D0BFE0130C28D1002A6E
:103A8000E7D080B4114F39667A66FFE7FFE730B4BC
:103A9000040C7B6F396F1B0423433B667A66FFE798
:103AA000FFE7FFE7C04684B27B6F3D6F1B042343F3
:103AB0003B667A66FFE7FFE7C04600232C042D0C27
:103AC0007A6F386F00196941B0BC7047000000D0B0
:103AD000F0B594460025140E01D112020835140FDA
:103AE00001D112010435940F01D192000235D40F97
:103AF00001D152000135D40B0134254F7C66254C91
:103B00003C660E0C93B2FFE7FFE7FFE73C6F6643AE
:103B1000360C7703BE467343DF0B5B04C01AB94112
:103B2000130C7343DB18C91ACE086643360CB6442F
:103B300093B273431F0F1B01C01AB941130C734397
:103B40001F0B1B05C01AB941860D8F023E43664309
:103B5000360C092D24DB520A7243801A7703460A79
:103B60006643360C16235B1BDE40DF40BF196446FC
:103B70006643821B7046043506330100D940A840D5
:103B8000C01900D30131A24206D20023F0BD0000CB
:103B9000000000D0FFFFFFFF121B0130F3D3F1E75D
:103BA00009277F1BFE406446A2B27243801A00D2EE
:103BB0000139220C7243130C1204821A99410B0032
:103BC0007046043513370100F940A840801900D32E
:103BD0000131002B02D1A2420AD2F0BD013000D344
:103BE0000131121BFAD2013BF8D1A24200D2F0BD42
:103BF000013000D30131121BF7E7F0B51C0C00D0E7
:103C000080E00CB400251C0A04D11B02160E3343BD
:103C1000120208351C0B04D11B01160F334312018D
:103C200004359C0B04D19B00960F33439200023560
:103C3000DC0B02D192185B4101351C0097186441DE
:103C40000134464F7C66464C3C660E0CFFE7FFE7AE
:103C5000FFE7C0463C6F6643360C7703BE4697B21B
:103C60007743C01B00D20139C01B00D201399FB27B
:103C70007743C91BC91B170C77437E04FF0B801BBE
:103C8000B941CE086643360C0C2D33DBB644120B1B
:103C90001F053A431B0B97B27743C01B00D2013973
:103CA0009FB27743C91B170C77433E043F0C801B20
:103CB000B941860D8F023E43664329277F1BFE4094
:103CC0000C3D7746AF40BF1930BCA2B2ABB27243D5
:103CD0007343801A9941220C7243130C1204801A08
:103CE000994102000B000137001BA941F9D2781E4F
:103CF0000021F0BD0C277F1BFE4077467F0BAF40B5
:103D0000FF19E0E700245D1C07D0144F7D6639667B
:103D1000FFE7FFE7FFE7FFE73C6F95B29EB2654321
:103D20006643401BB141150C1E0C654366433604C7
:103D30002F0C3E432D04401BB141994204D2020096
:103D40000B0020000021F0BD01D19042F7D3801A72
:103D5000994101349942F2D3F6E70000000000D007
:103D6000FFFFFFFF44464D4656465F46F0B470479E
:103D7000F0BCA046A946B246BB4670474840414009
:103D8000484018B41B4B5B68FC46019308BD04DF38
:103D9000AF44001018B4174B1B68FC46019308BDD4
:103DA00000DFB94400109446134A926F920809D27A
:103DB000624618B40F4BDB68FC46019308BD0CDF6C
:103DC000714700100C4AF0B5146E556E576F166FA0
:103DD0006246FFF7EEFF084A146655665767166796
:103DE000F0BD18B4034B9B68FC46019308BD08DF87
:103DF0001546001030190020000000D0FFB55040DB
:103E00004240504059404B40594000E0FFB5154FEB
:103E10004C00640D03D0BC4204D10C0314D8002024
:103E2000090D09055C00640D03D0BC4204D11C03DC
:103E30000AD800221B0D1B0501264B4009D44B401C
:103E400003D58B4200D18242FFBD9942FCD1904202
:103E5000FFBD0B43DB1803431343F5D0C943491897
:103E6000FFBD0000FF07000000B5FFF7CFFF804156
:103E700000BDC04600B5FFF7C9FF01D9002000BD55
:103E8000012000BD00B5FFF7B9FF01D9002000BD3A
:103E9000012000BD00B5FFF7B1FF804100BD01204A
:103EA00040054A00121804D85A00121801D8002000
:103EB00070470120704700000021002805D170479D
:103EC000C1174840401AFAD0C90713B5064B1B6802
:103ED00098470CBC441CA2401005120B0349091B57
:103EE00009051943114310BD182800201F040000C4
:103EF00010B54C00620D8023D218DB00D21A5B058E
:103F00007E2A10DD9E3A13DACC17090349081943BB
:103F10005242D140640001341532202A05DAD040E3
:103F20000843604310BD002010BD0846604310BD2B
:103F3000C80FC018013810BD18B4044B5B6AFC46AA
:103F4000019308BD24DF4D4B001000003019002004
:103F500018B4044B1B6EFC46019308BD60DFFF4B99
:103F6000001000003019002018B4044B9B69FC4677
:103F7000019308BD18DF3D490010000030190020F2
:103F8000024A034B00B500F071FA00BD182D4454ED
:103F9000FB2119408A0002D3920D092A08DA18B4CD
:103FA000064BDB6BFC46019308BD3CDF334D001034
:103FB00000B5FFF7E5FF04BC9646F0E73019002096
:103FC00018B4044B1B6DFC46019308BD50DFE15053
:103FD0000010000030190020132370B51D78012D4A
:103FE00019D014DD1F48FFF72DFB06001E48FFF710
:103FF00029FB1E4C80223100200001F0DBF9022D4C
:104000002DD01B48FFF716FB1A4B186070BD1A4BDA
:10401000164CA364F5E7184B144C23606360A3604F
:10402000E36023616361A361E36123626362A3626E
:10403000E36223636363A363E36323646364A3644E
:10404000E36423656365A365E36523666366A3662E
:10405000E36623676367A367E367A364D1E7064B5F
:10406000A364CEE7534400005346000030190020FB
:104070004C330000182800207D440010244A4B00D7
:1040800094465B0D6344F0B504000D005A1C21DB1F
:104090005A1C35D0342B1CDA3326F61A3700203F51
:1040A0001CD40121B9400B000121B1400A001219B2
:1040B0006B41002F1EDB0224BC4021000224B440CF
:1040C00020001600002544428D4126402B40300040
:1040D0001900F0BDCB0F0020D907FAE720210120FD
:1040E000891BC8400121B14003000A0012196B412D
:1040F000002FE0DA20240225A41BE5402900DDE79B
:10410000CB0F044ADB071A4300201100E1E7C04649
:1041100001FCFFFF0000F03FF0B50B00490002007A
:1041200085B0490D40D02748091837D434261000EF
:10413000761A1900002E2FDD3100203938D40120E5
:104140000024002588400094019501900121B14090
:10415000009101204042C117009C019D0019694156
:104160000D0000210400D80F002746428F41029421
:104170000395029C34402000039C3C40210012180F
:104180004B4100980199002746428F41340014406A
:1041900020003C001C40210005B0F0BD00200021A3
:1041A000002BF9DA0849F7E7DB0F0020D907F3E71E
:1041B00020210120891B00240025C840009401957E
:1041C0000190C3E701FCFFFF0000F0BFF0B54546DA
:1041D0004E46DE4657461C001300E0B589B00493F6
:1041E00005944D00129B904664006A0D81469446EA
:1041F000640D002B02D01A0000231360984DAC45CB
:104200006FD0002C6DD06346002B00D174E002000B
:104210000B00AC4267D0651E654564DC8022CB0F85
:104220009B460B0352031B0B13431F00059B4E467B
:104230001B031B0B9A464346029353461A430392B1
:1042400065455CD063461D1B5B46002B00D179E0C1
:1042500032003B00002756429F41002D00DC91E0D8
:10426000039B012019114042FFF744FB00239B46AA
:104270001D3381469A46A846079419E032009A40B9
:1042800001923300AB4020000093E117029A039B98
:1042900001F00CF8009E019F5B46A346AB409B4497
:1042A00043465B1B361A8F419846002B00DC9AE090
:1042B00045460C2D00DD0C254B46BC115C43534696
:1042C0005B1B1C412B0001346410203BD6D52023FE
:1042D00032005B1BDA4013003A00AA401A430192F5
:1042E000CFE700225F4B1000190009B0F0BCBB46BD
:1042F000B246A946A046F0BD00220023F3E797424C
:1043000068DD029A039B594692185B41002900D050
:1043100087E0B61A9F4101232C009B46059B002B8A
:1043200002DA5B465B429B46129B002B01D05A4649
:104330001A604D4A3000121B3900FFF709FE0200D7
:104340000B00D0E7002D01DD13008AE7029A039BE2
:10435000BB4237DC01D1B24234D802980399361AF5
:104360008F4132003B0092197B4100920193019BE7
:10437000009A8B4260DC5DD0029991425FD00123AC
:104380009B46CBE700239B46029A039BB6185F41EE
:10439000002F58DAB6185F4102235B429C46E34483
:1043A0003200029803993B0092197B418B4209DC51
:1043B00034D002998A42B1D1039A9342AED15B467E
:1043C000DB07ABD5029A039BB61A9F4101239C469B
:1043D000E344A3E7029B039CA74201D19E4290D8ED
:1043E00002000B007FE7079C029A039BBB4212DC92
:1043F0000ED0029A039BB61A9F41BB422BDC27D0FA
:10440000029A039BB61A9F4102239C46E344C7E7E6
:10441000029BB342EDD9002FC2DAB5E78242C8D978
:10442000D0E7921BBB411F0001235B4216002C000A
:104430009B4673E782429FD901239B46C2E7039ABA
:104440009A429CD1F8E701235B429C46E344A7E7EC
:10445000029BB342D4D901239C46E344A0E7C04663
:10446000FF0700000000F07F3304000010B50024B7
:1044700082B00094FFF7AAFE02B010BD07B56046F7
:1044800001880A0A0230DF2AFAD1C9B2820804D3AD
:10449000028840880004104300E00068014A505040
:1044A000039007BD301900200FB403BC0CBCF0B55D
:1044B0000124E407634000E0F0B50C0DCF0F661E49
:1044C0003605891B640503D3C943404200D301313B
:1044D000640D03D0661CF60A07D0E41B00207F00A1
:1044E000791C89078912803C24031D0DDF0F6E1E85
:1044F00036059B1B6D0503D3DB43524200D30133CA
:104500006D0D03D06E1CF60A07D0ED1B00227F0054
:104510007B1C9B079B12803D2D032F1B661B58D4D1
:10452000A446202E46DA20371400BC401D00BD40B2
:10453000F24033412A4380185941CB0F05D0C9437B
:10454000C043002264425041514162464D0D28D182
:104550000D0D07D100281FD0241940414941013ACF
:104560000D0DF9D0640006D3013000D30131002CC9
:1045700001D140084000013A0BD4941CE40A04D154
:1045800012051144DB071944F0BDD907204B19432C
:1045900000E0D9070020F0BD0029DDD1002CDBD1DF
:1045A000F0BD0132C6074008CD0728434908002E58
:1045B000E1D0D9E73C2E29DA203E40371400BC4038
:1045C00000D00124F24014431A00BB401C43D3170F
:1045D000ACE7AC46202F08DA20360400B4400D00CA
:1045E000B540F84039412843A5E73C2F0CDA203F7D
:1045F00040360400B44000D00124F84004430800D1
:10460000B1400C43C117EAE710001900002494E7F9
:104610000000F07FF0B50C0D661E3605891BE60A1A
:104620006405640D02D0651CED0A04D00020012150
:104630000905803C2403A4461C0D671E3F05DB1BB7
:10464000E70A6405640D02D0651CED0A04D000225F
:1046500001231B05803C24037740644497B484B253
:1046600096B27443070C7E43150C6F4380B26843C7
:10467000361802D3012000043F183004350C00190D
:104680007D41844688B29AB250430C0C62431F0CA1
:104690007C438EB27E43921902D301263604A419BC
:1046A0001604170C3618674101BC81B29AB2514307
:1046B000040C62431B0C5C4380B25843121802D3B3
:1046C0000120000424181004130C401863412D1815
:1046D0005E410020474106BC88B293B258430C0C9F
:1046E0006343120C544389B251435B1802D3012136
:1046F0000904641819041A0C091862416D1856410E
:104700000020474118BCF902720D1143F0026A0DF6
:104710001043ED020A0D03D16D1940414941013B9F
:10472000124E9B1B7600B3420ED26D0007D30130B0
:10473000002671416646354301D1400840001B0503
:10474000C918E4072144F0BD0BDA013306D101306A
:1047500004D101314F0D01D04908F2E7E1070020F3
:10476000F0BD013631050020EBE70000FF0300003B
:10477000F0B51C0D671E3F05DB1BE70A6405640DE1
:1047800002D0661CF60A04D0002201231B05803CDF
:104790002403D0252D060026F6432E661E096E66DC
:1047A000CE0FF619B44649004F0D02D07E1CF60A12
:1047B00003D000200021403F3F033E1BB600B4441D
:1047C000013F7F05C91B49082E6F013676089C0200
:1047D000950D25437543ED137543AD1301356D10EC
:1047E000F603761B0CB4CC02450D2C43A2B2B3B237
:1047F0005A43270C7B43350C6F43A4B26C431B19FF
:1048000002D3012424043F191C041D0CA4187D416B
:1048100024196D41009A91B2ACB26143170C7C43EC
:104820002B0C5F4392B25A43A41802D30122120404
:10483000BF182204230C52187B41019C6C431B19A6
:10484000520ED9010A434401A01A81B2B2B25143B7
:1048500003145A43360C734387B27743D617D219E1
:1048600000277E4136049B191704160C7F185E4101
:104870007316ED18F301002680337541A90F06D198
:104880006400690AE8055B0A184309D22FE0042294
:10489000944480337541A90AA8059B0A184326D37E
:1048A000404149412404009A019B0D005543641B7B
:1048B0004343E41A95B286B27543170C7E43030C4A
:1048C0005F4392B25A43B61802D301221204BF18B2
:1048D0003204330C52197B4152429C41002C02D4C9
:1048E0000022013051414008CA071043490802B074
:1048F0006246D7079210084BD218084B9A4203D24F
:1049000012058918C919F0BD0020002A01DC390000
:10491000F0BD01331905F5E7FD030000FE070000B7
:1049200007DA002107E0C90FC907520D03D0C912E9
:1049300001E04C49090500207047C0464A00F2D208
:10494000520D013A484B9A42EAD2F0B51405091BC0
:10495000520801D3001849419B08D2181205944609
:1049600040A44A0CA25C0B09534353431B1353430B
:104970005B131202D21A13005B435B0B4C086343B8
:10498000DB135343DB1501335B10D21A130CD21A1D
:1049900013005B438902840D21438DB29EB275439F
:1049A0000F0C7E431B0C5F438CB25C43361902D361
:1049B000012424043F193404330C64197B419D0104
:1049C000A40E2C432034A5B25543241454432D0C7B
:1049D0006419A411D203121B95B28EB27543170C41
:1049E0007E430C0C674393B26343F61802D3012352
:1049F0001B04FF183304340C5B197C41DB18644141
:104A0000DB18002363419EB276439DB21F0C7D43A9
:104A10007F436C04ED0BA4197D4106028F08361B01
:104A2000AF417D07F6086E41B4B295B26C433714BE
:104A30007D43120C5743B6B25643EA17AD19002610
:104A400072411204BF182E042A0C36197A4108321A
:104A5000521117D29D0A9C05D11710196941614462
:104A6000F0BD0000FF070000FE070000F8EBDFD6F6
:104A7000CDC5BEB8B2ADA8A4A09C9995928F8D8AE1
:104A80008885838152415D0ADC05D11714194D4197
:104A90002B006343A6B27643A2B2270C7A437F432E
:104AA0005104D20B89197A41D218D2188005494293
:104AB000904102D4002301345D4160086908ED078C
:104AC00028436144F0BDC046624618CA94465A461F
:104AD000002A20DB04E0624618CA944600291ADA4C
:104AE000C01861415B463B415C46B4405246FA40C7
:104AF000224344464D4662416B41904699462B46BF
:104B0000B3403D41FC401C4352465B46A241AB4191
:104B100092469B467047C01AA1414B463B414C46CA
:104B2000B4404246FA40224354465D4662416B41DE
:104B300092469B462B46B3403D41FC401C434246B7
:104B40004B46A241AB41904699467047002200B5C2
:104B5000203200F010F8080000BD002200B500F07F
:104B60000CF8CA179A4200D100BDD8430121C907E9
:104B7000414000BD00220B150AD410B5944600F048
:104B800079F81414013400DA0021CB17144C2047B3
:104B90000020002170476244343A0CD40C2A07DA12
:104BA00004009140904052422032D440214310BD35
:104BB000D843D94310BD203207D40C46944052420A
:104BC00020321141D040204310BD0800C9172032C7
:104BD00003D452422032104110BD1800190010BDFC
:104BE000974B001000210A00002104E000210A0078
:104BF000C11704E00022002306E0C0460022CB17C4
:104C000058405940C01A994130B5184CA21A002991
:104C100003D1010010D00020203A4C1512D104D24B
:104C2000013A001849414C0DFAD3114CA24204D26A
:104C300012058918DB07C91830BDD243520D002078
:104C40000021F5E703D4013A00184941FBD50B32A6
:104C50004405C00A4D052843C90A640003D0002456
:104C600060416141E1E7E0D34408F8E73204000025
:104C7000FE0700000A0DCC0F531E1B05C91A520572
:104C800003D3C943404200D30131520D03D0531C1A
:104C9000DB0A07D0121B00206400611C89078912FF
:104CA000803A1203014BD21A70470000FF03000044
:104CB000023225D40C2A1CDA1125AD1A0B002B4127
:104CC000083207350600EE40904091403143F0CC69
:104CD00063431A1500235A41554356435743BF02B5
:104CE000F412760576196741ED177F19801BB941DB
:104CF00070470C220020C917490001310905DBE784
:104D00000902030E194300025342203208D40C005A
:104D100019419440D84020430022504151417047EE
:104D20000800C917203B2032F1D5002000210022C5
:104D30007047F0B5FFF716F800F00EF800F030F805
:104D400006E0F0B5FFF70EF800F006F800F046F8C0
:104D5000FFF70EF8F0BD000000B5FFF78BFF30A4A1
:104D6000FFF7A6FF00242C4D2C4ED20702D3F643AA
:104D70006D426641520004D2A246A346A846B146FF
:104D800003E0A046A146AA46B3466EA4A446012766
:104D90001F26FFF7A0FE0137013E212FF9D100BDEC
:104DA000594684B28DB26C43061475430B145E43AE
:104DB00082B25A43AD18EA1700D7D2431204B6188C
:104DC0002A042B0C12197341404649469D009B173B
:104DD000920F2A43904199413E2210E7494684B2FE
:104DE0008DB26C43061475430B145E4382B25A4372
:104DF000AD18EA1700D7D2431204B6182A042B0CB8
:104E000012197341504659469D009B17920F2A4331
:104E1000504159413E22F2E6BB4DF09DC556F63653
:104E20007D5100001A61140085880A00FB211900D9
:104E3000F0B5FEF797FF404D0C002C4001D0AC427E
:104E400002D1090D090500201C002C4001D0AC4204
:104E500002D11B0D1B0500220026ED02002B04D5FC
:104E600002266B40694000D476424F1904D599421E
:104E70000CDD0136694003E0BB4207DA013E6B40BE
:104E8000070010003A000F0019003B0040B4002A50
:104E90000FD1002B0AD05C006415013409D14C00FD
:104EA0006415013402D10139013B02E000200021E8
:104EB0002EE0FFF75DFC3E22FFF750FE82468B4658
:104EC0000020002180460122920791461DA4A4469D
:104ED00001271F26FFF7F8FD0137013E212FF9D1E9
:104EE0004A4653460C3A01246407002752081B0027
:104EF00005D49341001979416408F7D104E0534186
:104F0000001BB9416408F1D1CE0749104008304375
:104F100040BC002E0AD0094C094D01D5E443ED43B5
:104F2000F60701D100196941001969413D22FFF7D7
:104F300066FEFEF71DFFF0BD0000F07F8D305A8841
:104F4000A8F64332694FBB610567AC1DB16E409650
:104F5000FCBAAD0F72DB0BABA66EF50739BD9FE552
:104F600076ABFE034B6297BA5BD5FF01D694DBDDCF
:104F7000AAFAFF005DEAEE5655FF7F006E77B7AAEA
:104F8000EAFF3F00BCBB5555FDFF1F00DEADAAAADE
:104F9000FFFF0F006F5555F5FFFF0700ABAAAAFEF4
:104FA000FFFF03005555D5FFFFFF0100ABAAFAFF35
:104FB000FFFF00005555FFFFFF7F0000ABEAFFFF3A
:104FC000FF3F000055FDFFFFFF1F0000ABFFFFFF8D
:104FD000FF0F0000F5FFFFFFFF070000FFFFFFFFCF
:104FE000FF030000000000000002000000000000BD
:104FF0000001000000000000800000000000000030
:105000004000000000000000200000000000000040
:105010001000000000000000080000000000000078
:10502000040000000000000002000000000000007A
:1050300001000000000000800000000000000040AF
:1050400000000000F0B5FFF715FE54A4FFF730FE96
:10505000002904DA204C214D00196941013A04B4B9
:10506000012752A6002201239B0730CEB446001B25
:10507000A9410BD47E4220361D003D411C00B440A6
:105080001600FE40344362416B4101E00019694162
:1050900066460137212FE8D185B29EB275430714C9
:1050A0007E43190C4F4384B24C43F1173619002448
:1050B000614109047F183404310C64197941A40F4B
:1050C0008800204389178018594104BC52423E325F
:1050D000FFF795FDF0BD00006BDE73F4FD855C2CE1
:1050E000F0B54F0050D27F154ED001374FD0FFF7AB
:1050F000C1FD04B44902C20D1143400201272BA691
:10510000B446002200237E4220360D003D410C00B3
:10511000B4400600FE40344344414D41AE0F05D13A
:1051200020002900664630CE121BAB410824A4445F
:105130000137212FE7D18900891012184B4180BC1B
:1051400017A413CC0137784379437C434F05C91228
:10515000CD17C0196941A702A415CD17C9196C4113
:10516000DD17801859416C413E22CD17AC4208D062
:1051700000090E0730430909260731432411043A78
:10518000F3E7FFF73CFDF0BD02490020F0BD024906
:105190000020F0BD0000F0FF0000F07FAAB8000082
:1051A0006BDE1300A3EF0F0021170B00F34B98BF2A
:1051B000EC23F319D6104DCDE3FB470E7AB9BC8A28
:1051C000DBC18907CC542C021846E103053083E784
:1051D000B029F8011E1FE0874505FE00249E41AC62
:1051E000A9807F008117624515E03F00E610ABA95A
:1051F00002F81F008858455500FE0F00C4AAA90AEE
:1052000080FF070056455501E0FF0300ABA92A00C7
:10521000F8FF010045550500FEFF0000AAAA008026
:10522000FF7F0000551500E0FF3F0000AB0200F8D3
:10523000FF1F0000550000FEFF0F00000B0080FF65
:10524000FF0700000100E0FFFF0300000000F8FF7F
:10525000FF0100000000FEFFFF0000000080FFFFD4
:105260007F00000000E0FFFF3F00000000F8FFFFAC
:105270001F00000000FEFFFF0F00000080FFFFFF87
:1052800007000000E0FFFFFF03000000F8FFFFFF42
:1052900001000000FEFFFFFF000000000000008092
:1052A00000000000000000400000000051434343A4
:1052B000C9188C46110C83B24B4310B4040C6143E3
:1052C00092B280B2504362431C041B0C001910BC04
:1052D00059411304120CC018514161447047000039
:1052E000132310B512481C78FEF7ACF90100012C0D
:1052F0000AD003DD80220F4800F05CF80E48FEF76C
:1053000099F90E4B186010BD0A4C5422200000F091
:1053100051F80B4B6365A365E36523666366A3667B
:10532000E36623676367A367E3672362E361E5E7F7
:1053300053460000301A00204C330000182800208B
:105340004553001007B5604601880A0A0230DF2A7B
:10535000FAD1C9B2820804D30288408800041043FD
:1053600000E00068014A5050039007BD301A002049
:1053700070B505000C0004F04BFC6C43002804D011
:10538000034B04199C4200D870BD0248FCF7A8FEEC
:105390000000042038AD001001480421014B1847DB
:1053A0009011002055360010014B1B681847000073
:1053B00090110020014B5B681847000090110020FD
:1053C0007047C046F8B55746DE464E464546E0B5FE
:1053D00099460A9B07009A460D9B884693460B9C6C
:1053E0009B073BD10C9B9C423DD21E1B0B9415008E
:1053F0000C005E442A004B46013521002020B847AE
:10540000B542F7D1A0460B9C002C20D0454636195A
:105410005346321B013C185D29004B46B847002C0F
:10542000F6D12B00350098460D9B9B070FD55B46A8
:10543000EC1A0C9BA3420AD9464698462A004B46D2
:10544000310020200134B84701354445F6D3280007
:10545000F0BCBB46B246A946A046F8BD16001500F2
:10546000002CD3D1E0E716001500002CCED1EEE7DA
:10547000F0B54546DE4657464E46E0B585B09C46FB
:1054800010AB1B78149F934698460F9C129E139D59
:10549000BB074CD4002D42D1B44248D201233B403B
:1054A00099460E9B013B9A46302304E05246013454
:1054B0001355A64201D9202CF8D14B46002B00D120
:1054C00083E00E9B013B99463023A54205D82EE090
:1054D0004A4601341355AC4229D0202CF8D1FB06A2
:1054E0000CD57B0554D4A64263D0A54261D0119B54
:1054F000102B50D0022B57D0202C32D120230193D7
:105500000E9B5A460093039763460295FFF75AFF96
:1055100005B0F0BCBB46B246A946A046F0BD01238B
:105520003B40994601233B422AD1B442B9D3FB0602
:105530001CD57B05DBD4002CD5D1119B102B5BD067
:10554000119B022B6BD0302301240E9A137043461B
:10555000002B10D17B073ED52B260E9A631C1655C7
:10556000CDE72300013430260E9AD654202CC5D026
:105570004346002BEED02D260E9A631C1655BEE72F
:105580004346002B2FD0013DB44200D289E798E773
:10559000119B102BB2D1BB0637D5202CAED058238F
:1055A0000E9A13550134A7E7202CA7D0230001340D
:1055B00007E0631E012CC0D0119A102A31D0022AB4
:1055C000D1D162260E9AD65496E7FB06CED57B053E
:1055D00000D488E78BE723003E0790D520260E9A5B
:1055E000013316558BE70C233B405A1E9341ED1AAD
:1055F000B44200D255E764E7BB060ED478230E9A76
:105600000224137030235370A1E7202C00D175E7DA
:1056100078230E9A135501346EE75823EFE7603371
:10562000EDE70E9AA61E91464E44BA0602D55822C0
:10563000327098E77822327095E7C04610B500289E
:1056400000D110BD01F098FCFBE7C0460B0010B57F
:10565000002802D049681B68984710BDF0B557462E
:10566000DE464E464546E0B595B083460F0092466D
:1056700098461E9A1F9B10001900209EFEF70FFCF3
:10568000002800D0EAE11E981F990122C54B524222
:10569000FEF7EAFB002800D014E11E981F990122B2
:1056A000C14B5242FEF7F6FB002800D0E9E01E98FD
:1056B0001F990022BD4BFEF7EDFB002800D0C8E08B
:1056C0001E981F990022BA4BFEF7CEFB002800D08F
:1056D000BFE01E981F9900220023FEF7C5FB00289B
:1056E00000D0E4E000230B93229B5B0500D4062648
:1056F0000024302307E0172106AA0134521813555D
:10570000013E202C01D0092EF5D81E981F99FEF7D6
:10571000EFFBA84BF2009B181A685B680500089223
:105720000993FEF7CDFB02000B001E981F99FEF7B0
:1057300028FB089A099BFEF754FB06900791FEF799
:10574000FBFB8146FEF7B8FB02000B0006980799A9
:10575000FEF717FB0022984B06900791FEF79AFB85
:10576000002800D10DE101239C46E1444846FEF7A4
:10577000A3FB02000B0008980999FEF77BFB0028A9
:1057800002D0002399460135002E00D1D9E00695BC
:105790004D46B94614E006AA944617230A216344ED
:1057A000280001341F19FEF7A5F8303139702800A0
:1057B0000A21013EFEF79EF8092D00D817E10500E9
:1057C000202CE8D14F46069D20240CAE06AA1723B4
:1057D0009446634499465B46B34606930FE04B46B6
:1057E00028000A210134E618FEF75CF83031280061
:1057F00031700A21FEF756F8051E00D1E4E0202C96
:10580000EDD1069B5E469B460323229A1340012B53
:1058100018D1219B002B15D00B9B002B00D1FDE054
:10582000219B013B2193202B0CD93023219A07E0A7
:10583000172006A9013409180B55944200D3CCE077
:10584000202CF5D1229B01940393219B0096029377
:1058500022E0229B52460493219B39000393584631
:105860001E9B1F9C029600930194434600F04AF948
:105870000400200015B0F0BCBB46B246A946A046C5
:10588000F0BD229B5B070FD403224C4B229901925F
:10589000039121990093029143465246390058469C
:1058A000FFF790FD0400E4E70422454BEEE71E9A63
:1058B0001F9B00200021FEF764FA01231E901F9118
:1058C0000B9311E7229B54469B0711D1219B042B7C
:1058D0000ED9219B55469C465E46043C64442A00F2
:1058E0004346013539002020B047A542F7D1B346E1
:1058F000344D26002B1F99465B46A3461C00320000
:10590000E87843463900013DA04701364D45F6D1C0
:1059100023005C469B46229B04349B07A9D5534633
:10592000219AE31A9A42A4D95E4615002200434602
:1059300039002020B04753460134E31A9D42F5D880
:1059400097E72800FEF7BCFA02000B001E981F998B
:10595000FEF717FA0022184B06900791FEF784FA1B
:105960000CAE002800D031E7069807990022124BB0
:10597000FEF790FA002800D028E7012301359D4367
:1059800024E70022069807990B4BFEF76DFA0028D2
:1059900000D0F9E64B46002B5CD101239C46E14444
:1059A000F2E6C046FFFFEFFFFFFFEF7F65CDCD4181
:1059B00065CDCDC160B000100000E03FA0AD00108B
:1059C00098AD0010A8AD0010069B5E469B460323D1
:1059D000229A1340012B00D181E0202C00D131E725
:1059E0000B9B002B27D02D23335501342AE74F463C
:1059F000069D202C00D1E7E63022331907E017205E
:105A000006A9013409180A55202C00D1DCE6A3426E
:105A1000F5D12E220CAE0134F254D7E60C23229A93
:105A2000134257D0219B013B2193A34200D9FCE6AE
:105A3000202C00D106E7229B5B0703D52B2333558F
:105A40000134FFE6229B1B0700D4FBE620233355DD
:105A50000134F7E6DB0700D496E69EE7229B554625
:105A60009B0711D1219B032B0ED9219B54469C46A9
:105A70005E46033D65442200434601343900202040
:105A8000B047AC42F7D1B346B9465F461C4EEC1C5A
:105A90002A00B078434649460135B847013EAC423A
:105AA000F6D1229BBB464F469B0700D4E1E6534606
:105AB000219AE31A9A4200D8DBE65E4615002200DE
:105AC000434639002020B04753460134E31AAB4225
:105AD000F5D3CEE6219BA34200D9A6E6B2E6219BF0
